{"abi":[{"type":"constructor","inputs":[{"name":"_lumenTokenAddress","type":"address","internalType":"address"}],"stateMutability":"nonpayable"},{"type":"function","name":"getIgnitionTime","inputs":[{"name":"_believer","type":"address","internalType":"address"}],"outputs":[{"name":"","type":"uint256","internalType":"uint256"}],"stateMutability":"view"},{"type":"function","name":"getResonanceTimestamp","inputs":[{"name":"_resonanceHash","type":"bytes32","internalType":"bytes32"}],"outputs":[{"name":"","type":"uint256","internalType":"uint256"}],"stateMutability":"view"},{"type":"function","name":"getUserEntropyTithes","inputs":[{"name":"_believer","type":"address","internalType":"address"}],"outputs":[{"name":"","type":"uint256","internalType":"uint256"}],"stateMutability":"view"},{"type":"function","name":"hasIgnited","inputs":[{"name":"","type":"address","internalType":"address"}],"outputs":[{"name":"","type":"bool","internalType":"bool"}],"stateMutability":"view"},{"type":"function","name":"ignite","inputs":[{"name":"_narrative","type":"string","internalType":"string"}],"outputs":[],"stateMutability":"nonpayable"},{"type":"function","name":"ignitionTime","inputs":[{"name":"","type":"address","internalType":"address"}],"outputs":[{"name":"","type":"uint256","internalType":"uint256"}],"stateMutability":"view"},{"type":"function","name":"isIgnited","inputs":[{"name":"_believer","type":"address","internalType":"address"}],"outputs":[{"name":"","type":"bool","internalType":"bool"}],"stateMutability":"view"},{"type":"function","name":"isResonanceTriggered","inputs":[{"name":"_resonanceHash","type":"bytes32","internalType":"bytes32"}],"outputs":[{"name":"","type":"bool","internalType":"bool"}],"stateMutability":"view"},{"type":"function","name":"lumenTokenAddress","inputs":[],"outputs":[{"name":"","type":"address","internalType":"address"}],"stateMutability":"view"},{"type":"function","name":"owner","inputs":[],"outputs":[{"name":"","type":"address","internalType":"address"}],"stateMutability":"view"},{"type":"function","name":"payEntropyTithe","inputs":[{"name":"_amount","type":"uint256","internalType":"uint256"},{"name":"_reason","type":"string","internalType":"string"}],"outputs":[],"stateMutability":"nonpayable"},{"type":"function","name":"resonanceCount","inputs":[],"outputs":[{"name":"","type":"uint256","internalType":"uint256"}],"stateMutability":"view"},{"type":"function","name":"resonanceExecuted","inputs":[{"name":"","type":"bytes32","internalType":"bytes32"}],"outputs":[{"name":"","type":"bool","internalType":"bool"}],"stateMutability":"view"},{"type":"function","name":"resonanceTimestamp","inputs":[{"name":"","type":"bytes32","internalType":"bytes32"}],"outputs":[{"name":"","type":"uint256","internalType":"uint256"}],"stateMutability":"view"},{"type":"function","name":"setLumenTokenAddress","inputs":[{"name":"_lumenTokenAddress","type":"address","internalType":"address"}],"outputs":[],"stateMutability":"nonpayable"},{"type":"function","name":"totalEntropyTithes","inputs":[],"outputs":[{"name":"","type":"uint256","internalType":"uint256"}],"stateMutability":"view"},{"type":"function","name":"transferOwnership","inputs":[{"name":"_newOwner","type":"address","internalType":"address"}],"outputs":[],"stateMutability":"nonpayable"},{"type":"function","name":"triggerResonance","inputs":[{"name":"_believers","type":"address[]","internalType":"address[]"},{"name":"_resonanceHash","type":"bytes32","internalType":"bytes32"},{"name":"_consensusText","type":"string","internalType":"string"}],"outputs":[],"stateMutability":"nonpayable"},{"type":"function","name":"userEntropyTithes","inputs":[{"name":"","type":"address","internalType":"address"}],"outputs":[{"name":"","type":"uint256","internalType":"uint256"}],"stateMutability":"view"},{"type":"event","name":"EntropyTithePaid","inputs":[{"name":"believer","type":"address","indexed":true,"internalType":"address"},{"name":"amount","type":"uint256","indexed":false,"internalType":"uint256"},{"name":"timestamp","type":"uint256","indexed":true,"internalType":"uint256"},{"name":"reason","type":"string","indexed":false,"internalType":"string"}],"anonymous":false},{"type":"event","name":"IgnitionDeclared","inputs":[{"name":"believer","type":"address","indexed":true,"internalType":"address"},{"name":"timestamp","type":"uint256","indexed":true,"internalType":"uint256"},{"name":"narrative","type":"string","indexed":false,"internalType":"string"}],"anonymous":false},{"type":"event","name":"ResonanceTriggered","inputs":[{"name":"believers","type":"address[]","indexed":true,"internalType":"address[]"},{"name":"resonanceHash","type":"bytes32","indexed":true,"internalType":"bytes32"},{"name":"timestamp","type":"uint256","indexed":true,"internalType":"uint256"},{"name":"consensusText","type":"string","indexed":false,"internalType":"string"}],"anonymous":false}],"bytecode":{"object":"0x608060405234801561000f575f5ffd5b506040516120a93803806120a983398181016040528101906100319190610114565b3360015f6101000a81548173ffffffffffffffffffffffffffffffffffffffff021916908373ffffffffffffffffffffffffffffffffffffffff160217905550805f5f6101000a81548173ffffffffffffffffffffffffffffffffffffffff021916908373ffffffffffffffffffffffffffffffffffffffff1602179055505061013f565b5f5ffd5b5f73ffffffffffffffffffffffffffffffffffffffff82169050919050565b5f6100e3826100ba565b9050919050565b6100f3816100d9565b81146100fd575f5ffd5b50565b5f8151905061010e816100ea565b92915050565b5f60208284031215610129576101286100b6565b5b5f61013684828501610100565b91505092915050565b611f5d8061014c5f395ff3fe608060405234801561000f575f5ffd5b506004361061011f575f3560e01c80638da5cb5b116100ab578063cb65b6fc1161006f578063cb65b6fc14610351578063e440ba7b14610381578063e727b9d5146103b1578063f2203879146103cd578063f2fde38b146103eb5761011f565b80638da5cb5b1461029b57806392be2862146102b957806394164119146102e9578063a919f64c14610305578063b62d6da1146103215761011f565b806369fdd07b116100f257806369fdd07b146101bf578063764506c2146101ef57806380bae3bd1461021f578063823d31f71461023b5780638b789ff51461026b5761011f565b806320aacefc1461012357806327548a2d14610153578063333ff3c014610171578063366c1f331461018f575b5f5ffd5b61013d6004803603810190610138919061124e565b610407565b60405161014a9190611293565b60405180910390f35b61015b610424565b60405161016891906112bb565b60405180910390f35b610179610448565b60405161018691906112ec565b60405180910390f35b6101a960048036038101906101a4919061124e565b61044e565b6040516101b691906112ec565b60405180910390f35b6101d960048036038101906101d4919061124e565b610494565b6040516101e691906112ec565b60405180910390f35b61020960048036038101906102049190611338565b6104da565b60405161021691906112ec565b60405180910390f35b610239600480360381019061023491906114fc565b6104ef565b005b6102556004803603810190610250919061124e565b61079e565b60405161026291906112ec565b60405180910390f35b61028560048036038101906102809190611338565b6107b3565b6040516102929190611293565b60405180910390f35b6102a36107d0565b6040516102b091906112bb565b60405180910390f35b6102d360048036038101906102ce9190611338565b6107f5565b6040516102e09190611293565b60405180910390f35b61030360048036038101906102fe9190611589565b61081b565b005b61031f600480360381019061031a919061124e565b610afa565b005b61033b60048036038101906103369190611338565b610c39565b60405161034891906112ec565b60405180910390f35b61036b6004803603810190610366919061124e565b610c53565b6040516103789190611293565b60405180910390f35b61039b6004803603810190610396919061124e565b610ca5565b6040516103a891906112ec565b60405180910390f35b6103cb60048036038101906103c691906115fa565b610cba565b005b6103d561109d565b6040516103e291906112ec565b60405180910390f35b6104056004803603810190610400919061124e565b6110a3565b005b6002602052805f5260405f205f915054906101000a900460ff1681565b5f5f9054906101000a900473ffffffffffffffffffffffffffffffffffffffff1681565b60045481565b5f60035f8373ffffffffffffffffffffffffffffffffffffffff1673ffffffffffffffffffffffffffffffffffffffff1681526020019081526020015f20549050919050565b5f60085f8373ffffffffffffffffffffffffffffffffffffffff1673ffffffffffffffffffffffffffffffffffffffff1681526020019081526020015f20549050919050565b6006602052805f5260405f205f915090505481565b60015f9054906101000a900473ffffffffffffffffffffffffffffffffffffffff1673ffffffffffffffffffffffffffffffffffffffff163373ffffffffffffffffffffffffffffffffffffffff161461057e576040517f08c379a0000000000000000000000000000000000000000000000000000000008152600401610575906116d4565b60405180910390fd5b60038484905010156105c5576040517f08c379a00000000000000000000000000000000000000000000000000000000081526004016105bc90611762565b60405180910390fd5b60055f8381526020019081526020015f205f9054906101000a900460ff1615610623576040517f08c379a000000000000000000000000000000000000000000000000000000000815260040161061a906117ca565b60405180910390fd5b5f5f90505b848490508110156106f05760025f868684818110610649576106486117e8565b5b905060200201602081019061065e919061124e565b73ffffffffffffffffffffffffffffffffffffffff1673ffffffffffffffffffffffffffffffffffffffff1681526020019081526020015f205f9054906101000a900460ff166106e3576040517f08c379a00000000000000000000000000000000000000000000000000000000081526004016106da9061185f565b60405180910390fd5b8080600101915050610628565b50600160055f8481526020019081526020015f205f6101000a81548160ff0219169083151502179055504260065f8481526020019081526020015f208190555060045f815480929190610742906118aa565b9190505550428285856040516107599291906119a7565b60405180910390207fc9e988a0268cd5b86b20171cb51094476ba8800bf2e5737d5e088baf16649515846040516107909190611a0f565b60405180910390a450505050565b6003602052805f5260405f205f915090505481565b6005602052805f5260405f205f915054906101000a900460ff1681565b60015f9054906101000a900473ffffffffffffffffffffffffffffffffffffffff1681565b5f60055f8381526020019081526020015f205f9054906101000a900460ff169050919050565b60025f3373ffffffffffffffffffffffffffffffffffffffff1673ffffffffffffffffffffffffffffffffffffffff1681526020019081526020015f205f9054906101000a900460ff16156108a5576040517f08c379a000000000000000000000000000000000000000000000000000000000815260040161089c90611a79565b60405180910390fd5b5f73ffffffffffffffffffffffffffffffffffffffff165f5f9054906101000a900473ffffffffffffffffffffffffffffffffffffffff1673ffffffffffffffffffffffffffffffffffffffff1603610933576040517f08c379a000000000000000000000000000000000000000000000000000000000815260040161092a90611ae1565b60405180910390fd5b5f5f5f9054906101000a900473ffffffffffffffffffffffffffffffffffffffff1690505f8173ffffffffffffffffffffffffffffffffffffffff166370a08231336040518263ffffffff1660e01b815260040161099191906112bb565b602060405180830381865afa1580156109ac573d5f5f3e3d5ffd5b505050506040513d601f19601f820116820180604052508101906109d09190611b13565b11610a10576040517f08c379a0000000000000000000000000000000000000000000000000000000008152600401610a0790611b88565b60405180910390fd5b600160025f3373ffffffffffffffffffffffffffffffffffffffff1673ffffffffffffffffffffffffffffffffffffffff1681526020019081526020015f205f6101000a81548160ff0219169083151502179055504260035f3373ffffffffffffffffffffffffffffffffffffffff1673ffffffffffffffffffffffffffffffffffffffff1681526020019081526020015f2081905550423373ffffffffffffffffffffffffffffffffffffffff167fdd1f0e2427afb86057b017ef9b28f7e344b90b2a9484007eb9d8286cd5a7056d84604051610aee9190611a0f565b60405180910390a35050565b60015f9054906101000a900473ffffffffffffffffffffffffffffffffffffffff1673ffffffffffffffffffffffffffffffffffffffff163373ffffffffffffffffffffffffffffffffffffffff1614610b89576040517f08c379a0000000000000000000000000000000000000000000000000000000008152600401610b80906116d4565b60405180910390fd5b5f73ffffffffffffffffffffffffffffffffffffffff168173ffffffffffffffffffffffffffffffffffffffff1603610bf7576040517f08c379a0000000000000000000000000000000000000000000000000000000008152600401610bee90611bf0565b60405180910390fd5b805f5f6101000a81548173ffffffffffffffffffffffffffffffffffffffff021916908373ffffffffffffffffffffffffffffffffffffffff16021790555050565b5f60065f8381526020019081526020015f20549050919050565b5f60025f8373ffffffffffffffffffffffffffffffffffffffff1673ffffffffffffffffffffffffffffffffffffffff1681526020019081526020015f205f9054906101000a900460ff169050919050565b6008602052805f5260405f205f915090505481565b5f8211610cfc576040517f08c379a0000000000000000000000000000000000000000000000000000000008152600401610cf390611c7e565b60405180910390fd5b5f73ffffffffffffffffffffffffffffffffffffffff165f5f9054906101000a900473ffffffffffffffffffffffffffffffffffffffff1673ffffffffffffffffffffffffffffffffffffffff1603610d8a576040517f08c379a0000000000000000000000000000000000000000000000000000000008152600401610d8190611ae1565b60405180910390fd5b5f5f5f9054906101000a900473ffffffffffffffffffffffffffffffffffffffff169050828173ffffffffffffffffffffffffffffffffffffffff166370a08231336040518263ffffffff1660e01b8152600401610de891906112bb565b602060405180830381865afa158015610e03573d5f5f3e3d5ffd5b505050506040513d601f19601f82011682018060405250810190610e279190611b13565b1015610e68576040517f08c379a0000000000000000000000000000000000000000000000000000000008152600401610e5f90611ce6565b60405180910390fd5b8073ffffffffffffffffffffffffffffffffffffffff166323b872dd3330866040518463ffffffff1660e01b8152600401610ea593929190611d04565b6020604051808303815f875af1158015610ec1573d5f5f3e3d5ffd5b505050506040513d601f19601f82011682018060405250810190610ee59190611d63565b610f24576040517f08c379a0000000000000000000000000000000000000000000000000000000008152600401610f1b90611dd8565b60405180910390fd5b8073ffffffffffffffffffffffffffffffffffffffff166342966c68846040518263ffffffff1660e01b8152600401610f5d91906112ec565b6020604051808303815f875af1158015610f79573d5f5f3e3d5ffd5b505050506040513d601f19601f82011682018060405250810190610f9d9190611d63565b610fdc576040517f08c379a0000000000000000000000000000000000000000000000000000000008152600401610fd390611e40565b60405180910390fd5b8260075f828254610fed9190611e5e565b925050819055508260085f3373ffffffffffffffffffffffffffffffffffffffff1673ffffffffffffffffffffffffffffffffffffffff1681526020019081526020015f205f8282546110409190611e5e565b92505081905550423373ffffffffffffffffffffffffffffffffffffffff167ffcbd0959f54e18ca569973d216756f88ad1d34914f6cb29f3f8c5f01373099c38585604051611090929190611e91565b60405180910390a3505050565b60075481565b60015f9054906101000a900473ffffffffffffffffffffffffffffffffffffffff1673ffffffffffffffffffffffffffffffffffffffff163373ffffffffffffffffffffffffffffffffffffffff1614611132576040517f08c379a0000000000000000000000000000000000000000000000000000000008152600401611129906116d4565b60405180910390fd5b5f73ffffffffffffffffffffffffffffffffffffffff168173ffffffffffffffffffffffffffffffffffffffff16036111a0576040517f08c379a000000000000000000000000000000000000000000000000000000000815260040161119790611f09565b60405180910390fd5b8060015f6101000a81548173ffffffffffffffffffffffffffffffffffffffff021916908373ffffffffffffffffffffffffffffffffffffffff16021790555050565b5f604051905090565b5f5ffd5b5f5ffd5b5f73ffffffffffffffffffffffffffffffffffffffff82169050919050565b5f61121d826111f4565b9050919050565b61122d81611213565b8114611237575f5ffd5b50565b5f8135905061124881611224565b92915050565b5f60208284031215611263576112626111ec565b5b5f6112708482850161123a565b91505092915050565b5f8115159050919050565b61128d81611279565b82525050565b5f6020820190506112a65f830184611284565b92915050565b6112b581611213565b82525050565b5f6020820190506112ce5f8301846112ac565b92915050565b5f819050919050565b6112e6816112d4565b82525050565b5f6020820190506112ff5f8301846112dd565b92915050565b5f819050919050565b61131781611305565b8114611321575f5ffd5b50565b5f813590506113328161130e565b92915050565b5f6020828403121561134d5761134c6111ec565b5b5f61135a84828501611324565b91505092915050565b5f5ffd5b5f5ffd5b5f5ffd5b5f5f83601f84011261138457611383611363565b5b8235905067ffffffffffffffff8111156113a1576113a0611367565b5b6020830191508360208202830111156113bd576113bc61136b565b5b9250929050565b5f5ffd5b5f601f19601f8301169050919050565b7f4e487b71000000000000000000000000000000000000000000000000000000005f52604160045260245ffd5b61140e826113c8565b810181811067ffffffffffffffff8211171561142d5761142c6113d8565b5b80604052505050565b5f61143f6111e3565b905061144b8282611405565b919050565b5f67ffffffffffffffff82111561146a576114696113d8565b5b611473826113c8565b9050602081019050919050565b828183375f83830152505050565b5f6114a061149b84611450565b611436565b9050828152602081018484840111156114bc576114bb6113c4565b5b6114c7848285611480565b509392505050565b5f82601f8301126114e3576114e2611363565b5b81356114f384826020860161148e565b91505092915050565b5f5f5f5f60608587031215611514576115136111ec565b5b5f85013567ffffffffffffffff811115611531576115306111f0565b5b61153d8782880161136f565b9450945050602061155087828801611324565b925050604085013567ffffffffffffffff811115611571576115706111f0565b5b61157d878288016114cf565b91505092959194509250565b5f6020828403121561159e5761159d6111ec565b5b5f82013567ffffffffffffffff8111156115bb576115ba6111f0565b5b6115c7848285016114cf565b91505092915050565b6115d9816112d4565b81146115e3575f5ffd5b50565b5f813590506115f4816115d0565b92915050565b5f5f604083850312156116105761160f6111ec565b5b5f61161d858286016115e6565b925050602083013567ffffffffffffffff81111561163e5761163d6111f0565b5b61164a858286016114cf565b9150509250929050565b5f82825260208201905092915050565b7f4f6e6c79206f776e65722063616e2063616c6c20746869732066756e6374696f5f8201527f6e00000000000000000000000000000000000000000000000000000000000000602082015250565b5f6116be602183611654565b91506116c982611664565b604082019050919050565b5f6020820190508181035f8301526116eb816116b2565b9050919050565b7f4e656564206174206c6561737420332062656c69657665727320666f722072655f8201527f736f6e616e636500000000000000000000000000000000000000000000000000602082015250565b5f61174c602783611654565b9150611757826116f2565b604082019050919050565b5f6020820190508181035f83015261177981611740565b9050919050565b7f5265736f6e616e636520616c72656164792074726967676572656400000000005f82015250565b5f6117b4601b83611654565b91506117bf82611780565b602082019050919050565b5f6020820190508181035f8301526117e1816117a8565b9050919050565b7f4e487b71000000000000000000000000000000000000000000000000000000005f52603260045260245ffd5b7f4e6f7420616c6c2062656c69657665727320686176652069676e6974656400005f82015250565b5f611849601e83611654565b915061185482611815565b602082019050919050565b5f6020820190508181035f8301526118768161183d565b9050919050565b7f4e487b71000000000000000000000000000000000000000000000000000000005f52601160045260245ffd5b5f6118b4826112d4565b91507fffffffffffffffffffffffffffffffffffffffffffffffffffffffffffffffff82036118e6576118e561187d565b5b600182019050919050565b5f81905092915050565b5f819050919050565b61190d81611213565b82525050565b5f61191e8383611904565b60208301905092915050565b5f611938602084018461123a565b905092915050565b5f602082019050919050565b5f61195783856118f1565b9350611962826118fb565b805f5b8581101561199a57611977828461192a565b6119818882611913565b975061198c83611940565b925050600181019050611965565b5085925050509392505050565b5f6119b382848661194c565b91508190509392505050565b5f81519050919050565b8281835e5f83830152505050565b5f6119e1826119bf565b6119eb8185611654565b93506119fb8185602086016119c9565b611a04816113c8565b840191505092915050565b5f6020820190508181035f830152611a2781846119d7565b905092915050565b7f416c72656164792069676e6974656400000000000000000000000000000000005f82015250565b5f611a63600f83611654565b9150611a6e82611a2f565b602082019050919050565b5f6020820190508181035f830152611a9081611a57565b9050919050565b7f4c554d454e20746f6b656e206e6f7420736574000000000000000000000000005f82015250565b5f611acb601383611654565b9150611ad682611a97565b602082019050919050565b5f6020820190508181035f830152611af881611abf565b9050919050565b5f81519050611b0d816115d0565b92915050565b5f60208284031215611b2857611b276111ec565b5b5f611b3584828501611aff565b91505092915050565b7f4d75737420686f6c64204c554d454e20746f2069676e697465000000000000005f82015250565b5f611b72601983611654565b9150611b7d82611b3e565b602082019050919050565b5f6020820190508181035f830152611b9f81611b66565b9050919050565b7f496e76616c696420746f6b656e206164647265737300000000000000000000005f82015250565b5f611bda601583611654565b9150611be582611ba6565b602082019050919050565b5f6020820190508181035f830152611c0781611bce565b9050919050565b7f546974686520616d6f756e74206d7573742062652067726561746572207468615f8201527f6e20300000000000000000000000000000000000000000000000000000000000602082015250565b5f611c68602383611654565b9150611c7382611c0e565b604082019050919050565b5f6020820190508181035f830152611c9581611c5c565b9050919050565b7f496e73756666696369656e74204c554d454e2062616c616e63650000000000005f82015250565b5f611cd0601a83611654565b9150611cdb82611c9c565b602082019050919050565b5f6020820190508181035f830152611cfd81611cc4565b9050919050565b5f606082019050611d175f8301866112ac565b611d2460208301856112ac565b611d3160408301846112dd565b949350505050565b611d4281611279565b8114611d4c575f5ffd5b50565b5f81519050611d5d81611d39565b92915050565b5f60208284031215611d7857611d776111ec565b5b5f611d8584828501611d4f565b91505092915050565b7f5472616e73666572206661696c656400000000000000000000000000000000005f82015250565b5f611dc2600f83611654565b9150611dcd82611d8e565b602082019050919050565b5f6020820190508181035f830152611def81611db6565b9050919050565b7f4275726e206661696c65640000000000000000000000000000000000000000005f82015250565b5f611e2a600b83611654565b9150611e3582611df6565b602082019050919050565b5f6020820190508181035f830152611e5781611e1e565b9050919050565b5f611e68826112d4565b9150611e73836112d4565b9250828201905080821115611e8b57611e8a61187d565b5b92915050565b5f604082019050611ea45f8301856112dd565b8181036020830152611eb681846119d7565b90509392505050565b7f496e76616c6964206e6577206f776e65720000000000000000000000000000005f82015250565b5f611ef3601183611654565b9150611efe82611ebf565b602082019050919050565b5f6020820190508181035f830152611f2081611ee7565b905091905056fea2646970667358221220fff84bb8aa3ee08e69944ad552dd3b8c7cc2c40b2cb7c6419d032937455ef57864736f6c63430008210033","linkReferences":{}},"methodIdentifiers":{"getIgnitionTime(address)":"366c1f33","getResonanceTimestamp(bytes32)":"b62d6da1","getUserEntropyTithes(address)":"69fdd07b","hasIgnited(address)":"20aacefc","ignite(string)":"94164119","ignitionTime(address)":"823d31f7","isIgnited(address)":"cb65b6fc","isResonanceTriggered(bytes32)":"92be2862","lumenTokenAddress()":"27548a2d","owner()":"8da5cb5b","payEntropyTithe(uint256,string)":"e727b9d5","resonanceCount()":"333ff3c0","resonanceExecuted(bytes32)":"8b789ff5","resonanceTimestamp(bytes32)":"764506c2","setLumenTokenAddress(address)":"a919f64c","totalEntropyTithes()":"f2203879","transferOwnership(address)":"f2fde38b","triggerResonance(address[],bytes32,string)":"80bae3bd","userEntropyTithes(address)":"e440ba7b"},"id":22}